{
  "_format": "hh-sol-artifact-1",
  "contractName": "ParticipationStaking",
  "sourceName": "contracts/ParticipationStaking.sol",
  "abi": [
    {
      "inputs": [],
      "stateMutability": "nonpayable",
      "type": "constructor"
    },
    {
      "inputs": [],
      "name": "OwnablePausable__OwnerAccountZeroAddress",
      "type": "error"
    },
    {
      "inputs": [],
      "name": "ParticipationStaking__CannotUnstakeDuringProfitDelay",
      "type": "error"
    },
    {
      "inputs": [],
      "name": "ParticipationStaking__InvalidMinimumStakeAmount",
      "type": "error"
    },
    {
      "inputs": [],
      "name": "ParticipationStaking__InvalidProfitDelay",
      "type": "error"
    },
    {
      "inputs": [],
      "name": "ParticipationStaking__InvalidStakingStartTimestamp",
      "type": "error"
    },
    {
      "inputs": [],
      "name": "ParticipationStaking__NoStakedTokens",
      "type": "error"
    },
    {
      "inputs": [],
      "name": "ParticipationStaking__OwnerAccountZeroAddress",
      "type": "error"
    },
    {
      "inputs": [],
      "name": "ParticipationStaking__StakeAmountTooHigh",
      "type": "error"
    },
    {
      "inputs": [],
      "name": "ParticipationStaking__StakeAmountTooLow",
      "type": "error"
    },
    {
      "inputs": [],
      "name": "ParticipationStaking__WlthZeroAddress",
      "type": "error"
    },
    {
      "inputs": [],
      "name": "ParticipationStaking__secondarySalesWalletZeroAddress",
      "type": "error"
    },
    {
      "anonymous": false,
      "inputs": [
        {
          "indexed": false,
          "internalType": "uint8",
          "name": "version",
          "type": "uint8"
        }
      ],
      "name": "Initialized",
      "type": "event"
    },
    {
      "anonymous": false,
      "inputs": [
        {
          "indexed": true,
          "internalType": "address",
          "name": "previousOwner",
          "type": "address"
        },
        {
          "indexed": true,
          "internalType": "address",
          "name": "newOwner",
          "type": "address"
        }
      ],
      "name": "OwnershipTransferred",
      "type": "event"
    },
    {
      "anonymous": false,
      "inputs": [
        {
          "indexed": false,
          "internalType": "address",
          "name": "account",
          "type": "address"
        }
      ],
      "name": "Paused",
      "type": "event"
    },
    {
      "anonymous": false,
      "inputs": [
        {
          "indexed": true,
          "internalType": "address",
          "name": "user",
          "type": "address"
        },
        {
          "indexed": true,
          "internalType": "uint256",
          "name": "oldAmount",
          "type": "uint256"
        },
        {
          "indexed": true,
          "internalType": "uint256",
          "name": "newAmount",
          "type": "uint256"
        }
      ],
      "name": "StakeDecreased",
      "type": "event"
    },
    {
      "anonymous": false,
      "inputs": [
        {
          "indexed": true,
          "internalType": "address",
          "name": "user",
          "type": "address"
        },
        {
          "indexed": true,
          "internalType": "uint256",
          "name": "oldAmount",
          "type": "uint256"
        },
        {
          "indexed": true,
          "internalType": "uint256",
          "name": "newAmount",
          "type": "uint256"
        }
      ],
      "name": "StakeIncreased",
      "type": "event"
    },
    {
      "anonymous": false,
      "inputs": [
        {
          "indexed": true,
          "internalType": "address",
          "name": "user",
          "type": "address"
        },
        {
          "indexed": true,
          "internalType": "uint256",
          "name": "amount",
          "type": "uint256"
        },
        {
          "indexed": true,
          "internalType": "uint256",
          "name": "fee",
          "type": "uint256"
        }
      ],
      "name": "Staked",
      "type": "event"
    },
    {
      "anonymous": false,
      "inputs": [
        {
          "indexed": false,
          "internalType": "address",
          "name": "account",
          "type": "address"
        }
      ],
      "name": "Unpaused",
      "type": "event"
    },
    {
      "inputs": [
        {
          "internalType": "uint256",
          "name": "_newAmount",
          "type": "uint256"
        }
      ],
      "name": "decreaseStake",
      "outputs": [],
      "stateMutability": "nonpayable",
      "type": "function"
    },
    {
      "inputs": [
        {
          "internalType": "uint256",
          "name": "_newAmount",
          "type": "uint256"
        }
      ],
      "name": "increaseStake",
      "outputs": [],
      "stateMutability": "nonpayable",
      "type": "function"
    },
    {
      "inputs": [
        {
          "internalType": "address",
          "name": "_owner",
          "type": "address"
        },
        {
          "internalType": "address",
          "name": "_wlth",
          "type": "address"
        },
        {
          "internalType": "address",
          "name": "_secondarySalesWallet",
          "type": "address"
        },
        {
          "internalType": "uint256",
          "name": "_stakingStartTimestamp",
          "type": "uint256"
        },
        {
          "internalType": "uint256",
          "name": "_profitDelay",
          "type": "uint256"
        },
        {
          "internalType": "uint256",
          "name": "_minimumStakeAmount",
          "type": "uint256"
        }
      ],
      "name": "initialize",
      "outputs": [],
      "stateMutability": "nonpayable",
      "type": "function"
    },
    {
      "inputs": [],
      "name": "minimumStakeAmount",
      "outputs": [
        {
          "internalType": "uint256",
          "name": "",
          "type": "uint256"
        }
      ],
      "stateMutability": "view",
      "type": "function"
    },
    {
      "inputs": [],
      "name": "owner",
      "outputs": [
        {
          "internalType": "address",
          "name": "",
          "type": "address"
        }
      ],
      "stateMutability": "view",
      "type": "function"
    },
    {
      "inputs": [],
      "name": "pause",
      "outputs": [],
      "stateMutability": "nonpayable",
      "type": "function"
    },
    {
      "inputs": [],
      "name": "paused",
      "outputs": [
        {
          "internalType": "bool",
          "name": "",
          "type": "bool"
        }
      ],
      "stateMutability": "view",
      "type": "function"
    },
    {
      "inputs": [],
      "name": "profitDelay",
      "outputs": [
        {
          "internalType": "uint256",
          "name": "",
          "type": "uint256"
        }
      ],
      "stateMutability": "view",
      "type": "function"
    },
    {
      "inputs": [],
      "name": "renounceOwnership",
      "outputs": [],
      "stateMutability": "view",
      "type": "function"
    },
    {
      "inputs": [],
      "name": "secondarySalesWallet",
      "outputs": [
        {
          "internalType": "address",
          "name": "",
          "type": "address"
        }
      ],
      "stateMutability": "view",
      "type": "function"
    },
    {
      "inputs": [
        {
          "internalType": "uint256",
          "name": "_amount",
          "type": "uint256"
        }
      ],
      "name": "stake",
      "outputs": [],
      "stateMutability": "nonpayable",
      "type": "function"
    },
    {
      "inputs": [
        {
          "internalType": "address",
          "name": "_wallet",
          "type": "address"
        }
      ],
      "name": "stakingInfo",
      "outputs": [
        {
          "components": [
            {
              "internalType": "uint256",
              "name": "totalStaked",
              "type": "uint256"
            },
            {
              "internalType": "uint256",
              "name": "stakingStartTimestamp",
              "type": "uint256"
            },
            {
              "internalType": "uint256",
              "name": "stakingEndTimestamp",
              "type": "uint256"
            }
          ],
          "internalType": "struct IParticipationStaking.StakingInfo",
          "name": "",
          "type": "tuple"
        }
      ],
      "stateMutability": "view",
      "type": "function"
    },
    {
      "inputs": [],
      "name": "stakingStartTimestamp",
      "outputs": [
        {
          "internalType": "uint256",
          "name": "",
          "type": "uint256"
        }
      ],
      "stateMutability": "view",
      "type": "function"
    },
    {
      "inputs": [],
      "name": "totalStaked",
      "outputs": [
        {
          "internalType": "uint256",
          "name": "",
          "type": "uint256"
        }
      ],
      "stateMutability": "view",
      "type": "function"
    },
    {
      "inputs": [
        {
          "internalType": "address",
          "name": "newOwner",
          "type": "address"
        }
      ],
      "name": "transferOwnership",
      "outputs": [],
      "stateMutability": "nonpayable",
      "type": "function"
    },
    {
      "inputs": [],
      "name": "unpause",
      "outputs": [],
      "stateMutability": "nonpayable",
      "type": "function"
    },
    {
      "inputs": [],
      "name": "unstake",
      "outputs": [],
      "stateMutability": "nonpayable",
      "type": "function"
    },
    {
      "inputs": [
        {
          "internalType": "address",
          "name": "_wallet",
          "type": "address"
        }
      ],
      "name": "unstakingInfo",
      "outputs": [
        {
          "components": [
            {
              "internalType": "uint256",
              "name": "lastUnstakeAmount",
              "type": "uint256"
            },
            {
              "internalType": "uint256",
              "name": "profitPeriodEndTimestamp",
              "type": "uint256"
            }
          ],
          "internalType": "struct IParticipationStaking.UnstakingInfo",
          "name": "",
          "type": "tuple"
        }
      ],
      "stateMutability": "view",
      "type": "function"
    },
    {
      "inputs": [],
      "name": "wlth",
      "outputs": [
        {
          "internalType": "address",
          "name": "",
          "type": "address"
        }
      ],
      "stateMutability": "view",
      "type": "function"
    }
  ],
  "bytecode": "0x608060405234801561001057600080fd5b5061001961001e565b6100de565b600054610100900460ff161561008a5760405162461bcd60e51b815260206004820152602760248201527f496e697469616c697a61626c653a20636f6e747261637420697320696e697469604482015266616c697a696e6760c81b606482015260840160405180910390fd5b60005460ff90811610156100dc576000805460ff191660ff9081179091556040519081527f7f26b83ff96e1f2b6a682f133852f6798a09c465da95921460cefb38474024989060200160405180910390a15b565b6113f6806100ed6000396000f3fe608060405234801561001057600080fd5b50600436106101215760003560e01c80638456cb59116100ad578063c103b74211610071578063c103b7421461021e578063e8b96de11461022f578063eb5fdbea14610242578063eedad66b146102b2578063f2fde38b146102c557600080fd5b80638456cb59146101985780638da5cb5b146101a057806394eecb50146101c5578063a347b874146101fa578063a694fc3a1461020b57600080fd5b80636b036f45116100f45780636b036f4514610165578063715018a61461016d578063728cdbca146101755780637402a85d14610188578063817b1cd21461019057600080fd5b80632def6620146101265780633f4ba83a14610130578063537a695b146101385780635c975abb1461014f575b600080fd5b61012e6102d8565b005b61012e6104bf565b60cd545b6040519081526020015b60405180910390f35b60655460ff166040519015158152602001610146565b60ce5461013c565b61012e6104d1565b61012e6101833660046111cb565b610511565b60cb5461013c565b60cc5461013c565b61012e610754565b6033546001600160a01b03165b6040516001600160a01b039091168152602001610146565b6101d86101d336600461122a565b610764565b6040805182518152602080840151908201529181015190820152606001610146565b60c9546001600160a01b03166101ad565b61012e61021936600461124c565b6107ca565b60ca546001600160a01b03166101ad565b61012e61023d36600461124c565b6108c4565b61029761025036600461122a565b6040805180820190915260008082526020820152506001600160a01b0316600090815260d06020908152604091829020825180840190935280548352600101549082015290565b60408051825181526020928301519281019290925201610146565b61012e6102c036600461124c565b610a29565b61012e6102d336600461122a565b610af3565b33600090815260cf602090815260408083208151606081018352815480825260018301549482019490945260029091015491810191909152910361032f57604051637fe3d9e160e01b815260040160405180910390fd5b4260cd548260200151610342919061127b565b10610360576040516304ea33d960e31b815260040160405180910390fd5b8051600090606490610373906063611294565b61037d91906112ab565b9050600061038c6064836112ab565b9050826000015160cc60008282546103a491906112cd565b92505081905550604051806060016040528060008152602001846020015181526020014281525060cf60006103d63390565b6001600160a01b031681526020808201929092526040908101600020835181558383015160018201559281015160029093019290925581518083019092528451825260cd5490820190610429904261127b565b905233600081815260d06020908152604080832085518155949091015160019094019390935585519251909291907f3c3bf06223167c735090f086f81aa7fb429e136c104164154bb5f0f079108bd9908490a461049d3361048a83856112cd565b60c9546001600160a01b03169190610b6c565b60ca5460c9546104ba916001600160a01b03918216911683610b6c565b505050565b6104c7610bcf565b6104cf610c29565b565b6104d9610bcf565b60405162461bcd60e51b8152602060048201526008602482015267191a5cd8589b195960c21b60448201526064015b60405180910390fd5b600054610100900460ff16158080156105315750600054600160ff909116105b8061054b5750303b15801561054b575060005460ff166001145b6105ae5760405162461bcd60e51b815260206004820152602e60248201527f496e697469616c697a61626c653a20636f6e747261637420697320616c72656160448201526d191e481a5b9a5d1a585b1a5e995960921b6064820152608401610508565b6000805460ff1916600117905580156105d1576000805461ff0019166101001790555b6001600160a01b0387166105f857604051635b8d53ab60e11b815260040160405180910390fd5b6001600160a01b03861661061f57604051638c77536b60e01b815260040160405180910390fd5b6001600160a01b03851661064657604051638d20b77160e01b815260040160405180910390fd5b8260000361066757604051633261df0960e01b815260040160405180910390fd5b8160000361068857604051630761a02b60e11b815260040160405180910390fd5b610690610c7b565b61069987610ca2565b60c980546001600160a01b038089166001600160a01b03199283161790925560ca80549288169290911691909117905560cb84905560cd83905560ce829055831561070557428410156106ff576040516332a9bea160e01b815260040160405180910390fd5b60cb8490555b801561074b576000805461ff0019169055604051600181527f7f26b83ff96e1f2b6a682f133852f6798a09c465da95921460cefb38474024989060200160405180910390a15b50505050505050565b61075c610bcf565b6104cf610cd2565b61078860405180606001604052806000815260200160008152602001600081525090565b506001600160a01b0316600090815260cf6020908152604091829020825160608101845281548152600182015492810192909252600201549181019190915290565b60ce548110156107ed5760405163b386531d60e01b815260040160405180910390fd5b60006107fa6064836112ab565b9050600061080882846112cd565b90508260cc600082825461081c919061127b565b90915550506040805160608101825284815242602080830191825260008385018181523380835260cf90935285822094518555925160018501559151600290930192909255915184928692917f1449c6dd7851abc30abf37f57715f492010519147cc2652fbc38202c18a6ee909190a46108a5335b60c9546001600160a01b0316903084610d0f565b6104ba335b60ca5460c9546001600160a01b0390811692911685610d0f565b33600090815260cf6020908152604091829020825160608101845281548082526001830154938201939093526002909101549281019290925282111561091d576040516378824edf60e01b815260040160405180910390fd5b4260cd548260200151610930919061127b565b1061094e576040516304ea33d960e31b815260040160405180910390fd5b8051600090606490610961906063611294565b61096b91906112ab565b9050600061097984836112cd565b905060006109886064836112ab565b9050600061099682846112cd565b90508260cc60008282546109aa91906112cd565b909155505033600081815260cf602052604080822089905587519051899391927f3c3bf06223167c735090f086f81aa7fb429e136c104164154bb5f0f079108bd991a4610a043360c9546001600160a01b03169083610b6c565b60ca5460c954610a21916001600160a01b03918216911684610b6c565b505050505050565b33600090815260cf602052604090205480821015610a5a5760405163b386531d60e01b815260040160405180910390fd5b6000610a6682846112cd565b90506000610a756064836112ab565b90506000610a8382846112cd565b90508260cc6000828254610a97919061127b565b909155505033600081815260cf6020526040808220889055518792879290917fe6afb5ca7cc84435baf09da39fcb42fc0fb8bdfef6c3ff2ce9fce2c70a18f8219190a4610ae333610891565b610aec336108aa565b5050505050565b610afb610bcf565b6001600160a01b038116610b605760405162461bcd60e51b815260206004820152602660248201527f4f776e61626c653a206e6577206f776e657220697320746865207a65726f206160448201526564647265737360d01b6064820152608401610508565b610b6981610d4d565b50565b6040516001600160a01b0383166024820152604481018290526104ba90849063a9059cbb60e01b906064015b60408051601f198184030181529190526020810180516001600160e01b03166001600160e01b031990931692909217909152610d9f565b6033546001600160a01b031633146104cf5760405162461bcd60e51b815260206004820181905260248201527f4f776e61626c653a2063616c6c6572206973206e6f7420746865206f776e65726044820152606401610508565b610c31610e71565b6065805460ff191690557f5db9ee0a495bf2e6ff9c91a7834c1ba4fdd244a5e8aa4e537bd38aeae4b073aa335b6040516001600160a01b03909116815260200160405180910390a1565b600054610100900460ff166104cf5760405162461bcd60e51b8152600401610508906112e0565b600054610100900460ff16610cc95760405162461bcd60e51b8152600401610508906112e0565b610b6981610eba565b610cda610f18565b6065805460ff191660011790557f62e78cea01bee320cd4e420270b5ea74000d11b0c9f74754ebdbfc544b05a258610c5e3390565b6040516001600160a01b0380851660248301528316604482015260648101829052610d479085906323b872dd60e01b90608401610b98565b50505050565b603380546001600160a01b038381166001600160a01b0319831681179093556040519116919082907f8be0079c531659141344cd1fd0a4f28419497f9722a3daafe3b4186f6b6457e090600090a35050565b6000610df4826040518060400160405280602081526020017f5361666545524332303a206c6f772d6c6576656c2063616c6c206661696c6564815250856001600160a01b0316610f5e9092919063ffffffff16565b8051909150156104ba5780806020019051810190610e12919061132b565b6104ba5760405162461bcd60e51b815260206004820152602a60248201527f5361666545524332303a204552433230206f7065726174696f6e20646964206e6044820152691bdd081cdd58d8d9595960b21b6064820152608401610508565b60655460ff166104cf5760405162461bcd60e51b815260206004820152601460248201527314185d5cd8589b194e881b9bdd081c185d5cd95960621b6044820152606401610508565b600054610100900460ff16610ee15760405162461bcd60e51b8152600401610508906112e0565b6001600160a01b038116610f0857604051635bb92f3d60e01b815260040160405180910390fd5b610f10610f75565b610b60610fa4565b60655460ff16156104cf5760405162461bcd60e51b815260206004820152601060248201526f14185d5cd8589b194e881c185d5cd95960821b6044820152606401610508565b6060610f6d8484600085610fd3565b949350505050565b600054610100900460ff16610f9c5760405162461bcd60e51b8152600401610508906112e0565b6104cf6110ae565b600054610100900460ff16610fcb5760405162461bcd60e51b8152600401610508906112e0565b6104cf6110de565b6060824710156110345760405162461bcd60e51b815260206004820152602660248201527f416464726573733a20696e73756666696369656e742062616c616e636520666f6044820152651c8818d85b1b60d21b6064820152608401610508565b600080866001600160a01b031685876040516110509190611371565b60006040518083038185875af1925050503d806000811461108d576040519150601f19603f3d011682016040523d82523d6000602084013e611092565b606091505b50915091506110a387838387611111565b979650505050505050565b600054610100900460ff166110d55760405162461bcd60e51b8152600401610508906112e0565b6104cf33610d4d565b600054610100900460ff166111055760405162461bcd60e51b8152600401610508906112e0565b6065805460ff19169055565b60608315611180578251600003611179576001600160a01b0385163b6111795760405162461bcd60e51b815260206004820152601d60248201527f416464726573733a2063616c6c20746f206e6f6e2d636f6e74726163740000006044820152606401610508565b5081610f6d565b610f6d83838151156111955781518083602001fd5b8060405162461bcd60e51b8152600401610508919061138d565b80356001600160a01b03811681146111c657600080fd5b919050565b60008060008060008060c087890312156111e457600080fd5b6111ed876111af565b95506111fb602088016111af565b9450611209604088016111af565b9350606087013592506080870135915060a087013590509295509295509295565b60006020828403121561123c57600080fd5b611245826111af565b9392505050565b60006020828403121561125e57600080fd5b5035919050565b634e487b7160e01b600052601160045260246000fd5b8082018082111561128e5761128e611265565b92915050565b808202811582820484141761128e5761128e611265565b6000826112c857634e487b7160e01b600052601260045260246000fd5b500490565b8181038181111561128e5761128e611265565b6020808252602b908201527f496e697469616c697a61626c653a20636f6e7472616374206973206e6f74206960408201526a6e697469616c697a696e6760a81b606082015260800190565b60006020828403121561133d57600080fd5b8151801515811461124557600080fd5b60005b83811015611368578181015183820152602001611350565b50506000910152565b6000825161138381846020870161134d565b9190910192915050565b60208152600082518060208401526113ac81604085016020870161134d565b601f01601f1916919091016040019291505056fea2646970667358221220002fc2134a6e50511e1fb941080041673b829a9d97395073ef13372f34859d2164736f6c63430008120033",
  "linkReferences": {},
  "deployedLinkReferences": {}
}