{
  "_format": "hh-sol-artifact-1",
  "contractName": "WlthBonusStaking",
  "sourceName": "contracts/WlthBonusStaking.sol",
  "abi": [
    {
      "inputs": [],
      "stateMutability": "nonpayable",
      "type": "constructor"
    },
    {
      "inputs": [],
      "name": "OwnablePausable__OwnerAccountZeroAddress",
      "type": "error"
    },
    {
      "inputs": [],
      "name": "WlthBonusStaking__CannotStakeZeroTokens",
      "type": "error"
    },
    {
      "inputs": [],
      "name": "WlthBonusStaking__ClaimRewardPeriodNotActive",
      "type": "error"
    },
    {
      "inputs": [],
      "name": "WlthBonusStaking__CommunityFundZeroAddress",
      "type": "error"
    },
    {
      "inputs": [],
      "name": "WlthBonusStaking__NoStakedTokens",
      "type": "error"
    },
    {
      "inputs": [],
      "name": "WlthBonusStaking__OwnerAccountZeroAddress",
      "type": "error"
    },
    {
      "inputs": [],
      "name": "WlthBonusStaking__StakingPeriodNotActive",
      "type": "error"
    },
    {
      "inputs": [],
      "name": "WlthBonusStaking__WlthZeroAddress",
      "type": "error"
    },
    {
      "inputs": [],
      "name": "WlthBonusStaking__WrongStakingDuration",
      "type": "error"
    },
    {
      "inputs": [],
      "name": "WlthBonusStaking__WrongStakingStartTimestamp",
      "type": "error"
    },
    {
      "inputs": [],
      "name": "WlthBonusStaking__WrongTotalRewardValue",
      "type": "error"
    },
    {
      "anonymous": false,
      "inputs": [
        {
          "indexed": false,
          "internalType": "uint8",
          "name": "version",
          "type": "uint8"
        }
      ],
      "name": "Initialized",
      "type": "event"
    },
    {
      "anonymous": false,
      "inputs": [
        {
          "indexed": true,
          "internalType": "address",
          "name": "previousOwner",
          "type": "address"
        },
        {
          "indexed": true,
          "internalType": "address",
          "name": "newOwner",
          "type": "address"
        }
      ],
      "name": "OwnershipTransferred",
      "type": "event"
    },
    {
      "anonymous": false,
      "inputs": [
        {
          "indexed": false,
          "internalType": "address",
          "name": "account",
          "type": "address"
        }
      ],
      "name": "Paused",
      "type": "event"
    },
    {
      "anonymous": false,
      "inputs": [
        {
          "indexed": true,
          "internalType": "address",
          "name": "user",
          "type": "address"
        },
        {
          "indexed": false,
          "internalType": "uint256",
          "name": "unstakedAmount",
          "type": "uint256"
        },
        {
          "indexed": true,
          "internalType": "uint256",
          "name": "reward",
          "type": "uint256"
        },
        {
          "indexed": false,
          "internalType": "uint256",
          "name": "penalty",
          "type": "uint256"
        },
        {
          "indexed": false,
          "internalType": "uint256",
          "name": "rewardFee",
          "type": "uint256"
        },
        {
          "indexed": false,
          "internalType": "uint256",
          "name": "penaltyFee",
          "type": "uint256"
        }
      ],
      "name": "RewardsClaimed",
      "type": "event"
    },
    {
      "anonymous": false,
      "inputs": [
        {
          "indexed": true,
          "internalType": "address",
          "name": "user",
          "type": "address"
        },
        {
          "indexed": true,
          "internalType": "uint256",
          "name": "amount",
          "type": "uint256"
        },
        {
          "indexed": true,
          "internalType": "uint256",
          "name": "fee",
          "type": "uint256"
        },
        {
          "indexed": false,
          "internalType": "uint256",
          "name": "totalUserStake",
          "type": "uint256"
        }
      ],
      "name": "Staked",
      "type": "event"
    },
    {
      "anonymous": false,
      "inputs": [
        {
          "indexed": true,
          "internalType": "uint256",
          "name": "stakingStartTimestamp",
          "type": "uint256"
        },
        {
          "indexed": true,
          "internalType": "uint256",
          "name": "stakingEndTimestamp",
          "type": "uint256"
        }
      ],
      "name": "StakingScheduleSet",
      "type": "event"
    },
    {
      "anonymous": false,
      "inputs": [
        {
          "indexed": false,
          "internalType": "address",
          "name": "account",
          "type": "address"
        }
      ],
      "name": "Unpaused",
      "type": "event"
    },
    {
      "anonymous": false,
      "inputs": [
        {
          "indexed": true,
          "internalType": "address",
          "name": "user",
          "type": "address"
        },
        {
          "indexed": true,
          "internalType": "uint256",
          "name": "amount",
          "type": "uint256"
        },
        {
          "indexed": true,
          "internalType": "uint256",
          "name": "fee",
          "type": "uint256"
        }
      ],
      "name": "Unstaked",
      "type": "event"
    },
    {
      "inputs": [
        {
          "internalType": "address",
          "name": "_user",
          "type": "address"
        }
      ],
      "name": "calculateRewardInfo",
      "outputs": [
        {
          "components": [
            {
              "internalType": "uint256",
              "name": "staked",
              "type": "uint256"
            },
            {
              "internalType": "uint256",
              "name": "maxReward",
              "type": "uint256"
            },
            {
              "internalType": "uint256",
              "name": "penalty",
              "type": "uint256"
            },
            {
              "internalType": "uint256",
              "name": "rewardAfterPenalty",
              "type": "uint256"
            }
          ],
          "internalType": "struct IWlthBonusStaking.RewardInfo",
          "name": "",
          "type": "tuple"
        }
      ],
      "stateMutability": "view",
      "type": "function"
    },
    {
      "inputs": [],
      "name": "claimReward",
      "outputs": [],
      "stateMutability": "nonpayable",
      "type": "function"
    },
    {
      "inputs": [],
      "name": "communityFund",
      "outputs": [
        {
          "internalType": "address",
          "name": "",
          "type": "address"
        }
      ],
      "stateMutability": "view",
      "type": "function"
    },
    {
      "inputs": [
        {
          "internalType": "address",
          "name": "_owner",
          "type": "address"
        },
        {
          "internalType": "address",
          "name": "_wlth",
          "type": "address"
        },
        {
          "internalType": "address",
          "name": "_communityFund",
          "type": "address"
        },
        {
          "internalType": "uint256",
          "name": "_stakingStartTimestamp",
          "type": "uint256"
        },
        {
          "internalType": "uint256",
          "name": "_stakingDuration",
          "type": "uint256"
        },
        {
          "internalType": "uint256",
          "name": "_totalReward",
          "type": "uint256"
        }
      ],
      "name": "initialize",
      "outputs": [],
      "stateMutability": "nonpayable",
      "type": "function"
    },
    {
      "inputs": [],
      "name": "owner",
      "outputs": [
        {
          "internalType": "address",
          "name": "",
          "type": "address"
        }
      ],
      "stateMutability": "view",
      "type": "function"
    },
    {
      "inputs": [],
      "name": "pause",
      "outputs": [],
      "stateMutability": "nonpayable",
      "type": "function"
    },
    {
      "inputs": [],
      "name": "paused",
      "outputs": [
        {
          "internalType": "bool",
          "name": "",
          "type": "bool"
        }
      ],
      "stateMutability": "view",
      "type": "function"
    },
    {
      "inputs": [],
      "name": "renounceOwnership",
      "outputs": [],
      "stateMutability": "view",
      "type": "function"
    },
    {
      "inputs": [
        {
          "internalType": "uint256",
          "name": "_stakingStartTimestamp",
          "type": "uint256"
        },
        {
          "internalType": "uint256",
          "name": "_stakingDuration",
          "type": "uint256"
        }
      ],
      "name": "setStakingSchedule",
      "outputs": [],
      "stateMutability": "nonpayable",
      "type": "function"
    },
    {
      "inputs": [
        {
          "internalType": "uint256",
          "name": "_amount",
          "type": "uint256"
        }
      ],
      "name": "stake",
      "outputs": [],
      "stateMutability": "nonpayable",
      "type": "function"
    },
    {
      "inputs": [],
      "name": "stakingInfo",
      "outputs": [
        {
          "components": [
            {
              "internalType": "uint256",
              "name": "totalStaked",
              "type": "uint256"
            },
            {
              "internalType": "uint256",
              "name": "totalReward",
              "type": "uint256"
            },
            {
              "internalType": "uint256",
              "name": "stakingStartTimestamp",
              "type": "uint256"
            },
            {
              "internalType": "uint256",
              "name": "stakingEndTimestamp",
              "type": "uint256"
            },
            {
              "internalType": "uint256",
              "name": "stakingDuration",
              "type": "uint256"
            }
          ],
          "internalType": "struct IWlthBonusStaking.StakingInfo",
          "name": "",
          "type": "tuple"
        }
      ],
      "stateMutability": "view",
      "type": "function"
    },
    {
      "inputs": [
        {
          "internalType": "address",
          "name": "newOwner",
          "type": "address"
        }
      ],
      "name": "transferOwnership",
      "outputs": [],
      "stateMutability": "nonpayable",
      "type": "function"
    },
    {
      "inputs": [],
      "name": "unpause",
      "outputs": [],
      "stateMutability": "nonpayable",
      "type": "function"
    },
    {
      "inputs": [],
      "name": "unstake",
      "outputs": [],
      "stateMutability": "nonpayable",
      "type": "function"
    },
    {
      "inputs": [],
      "name": "wlth",
      "outputs": [
        {
          "internalType": "address",
          "name": "",
          "type": "address"
        }
      ],
      "stateMutability": "view",
      "type": "function"
    }
  ],
  "bytecode": "0x608060405234801561001057600080fd5b5061155a806100206000396000f3fe608060405234801561001057600080fd5b50600436106100f45760003560e01c8063728cdbca11610097578063a694fc3a11610066578063a694fc3a14610220578063b88a802f14610233578063bbc7edbd1461023b578063f2fde38b1461024e57600080fd5b8063728cdbca146101e35780638456cb59146101f65780638da5cb5b146101fe578063a347b8741461020f57600080fd5b80635c975abb116100d35780635c975abb146101355780635d891e0b1461014b578063703ec8c414610191578063715018a6146101db57600080fd5b8062f380f4146100f95780632def6620146101235780633f4ba83a1461012d575b600080fd5b60ca546001600160a01b03165b6040516001600160a01b0390911681526020015b60405180910390f35b61012b610261565b005b61012b610385565b60655460ff16604051901515815260200161011a565b61015e61015936600461130d565b610397565b60405161011a91908151815260208083015190820152604080830151908201526060918201519181019190915260800190565b610199610528565b60405161011a9190600060a082019050825182526020830151602083015260408301516040830152606083015160608301526080830151608083015292915050565b61012b6105b6565b61012b6101f136600461132f565b6105f6565b61012b610841565b6033546001600160a01b0316610106565b60c9546001600160a01b0316610106565b61012b61022e36600461138e565b610851565b61012b61098b565b61012b6102493660046113a7565b610ba0565b61012b61025c36600461130d565b610c3b565b60cb541580610271575060cb5442105b8061027e575060cc544210155b1561029c5760405163f802ae3160e01b815260040160405180910390fd5b33600090815260d0602052604081205490036102cb576040516306886fc560e01b815260040160405180910390fd5b33600090815260d06020526040812054906102e76064836113df565b905060006102f58284611401565b90508260cf60008282546103099190611401565b909155505033600081815260d06020526040808220829055518492849290917f7fc4727e062e336010f2c282598ef5f14facb3de68cf8195c2f23e1454b2b74e9190a460c954610363906001600160a01b03163383610cb4565b60ca5460c954610380916001600160a01b03918216911684610cb4565b505050565b61038d610d17565b610395610d71565b565b6103c26040518060800160405280600081526020016000815260200160008152602001600081525090565b6001600160a01b038216600090815260d06020526040812054908190036104105760405180608001604052806000815260200160008152602001600081526020016000815250915050919050565b61043b6040518060800160405280600081526020016000815260200160008152602001600081525090565b81815260cc5442101561044f579392505050565b600060cf548360ce54610462919061141a565b61046c91906113df565b6020830181905260cc549091506000906104869042611401565b90506276a70081101561049f5760408301829052610505565b62ed4e008110156104cb5760646104b783604b61141a565b6104c191906113df565b6040840152610505565b630163f5008110156104e45760646104b783603261141a565b6301da9c008110156104fd5760646104b783601961141a565b600060408401525b826040015183602001516105199190611401565b60608401525090949350505050565b61055a6040518060a0016040528060008152602001600081526020016000815260200160008152602001600081525090565b61058c6040518060a0016040528060008152602001600081526020016000815260200160008152602001600081525090565b60cf54815260ce54602082015260cb54604082015260cc54606082015260cd546080820152919050565b6105be610d17565b60405162461bcd60e51b8152602060048201526008602482015267191a5cd8589b195960c21b60448201526064015b60405180910390fd5b600054610100900460ff16158080156106165750600054600160ff909116105b806106305750303b158015610630575060005460ff166001145b6106935760405162461bcd60e51b815260206004820152602e60248201527f496e697469616c697a61626c653a20636f6e747261637420697320616c72656160448201526d191e481a5b9a5d1a585b1a5e995960921b60648201526084016105ed565b6000805460ff1916600117905580156106b6576000805461ff0019166101001790555b6001600160a01b0387166106dd5760405163f261319360e01b815260040160405180910390fd5b6001600160a01b03861661070457604051632b715aff60e11b815260040160405180910390fd5b6001600160a01b03851661072b5760405163442396b160e01b815260040160405180910390fd5b8160000361074c5760405163083b0c0160e11b815260040160405180910390fd5b610754610dc3565b61075d87610dea565b60c980546001600160a01b038089166001600160a01b03199283161790925560ca80549288169290911691909117905583156107ed57428410156107b4576040516305740b0360e31b815260040160405180910390fd5b826000036107d55760405163047ec64f60e01b815260040160405180910390fd5b60cd83905560cb8490556107e98385611431565b60cc555b60ce8290558015610838576000805461ff0019169055604051600181527f7f26b83ff96e1f2b6a682f133852f6798a09c465da95921460cefb38474024989060200160405180910390a15b50505050505050565b610849610d17565b610395610e1a565b60cb541580610861575060cb5442105b8061086e575060cc544210155b1561088c5760405163f802ae3160e01b815260040160405180910390fd5b806000036108ad5760405163189021c160e31b815260040160405180910390fd5b60006108ba6064836113df565b905060006108c88284611401565b33600090815260d060205260408120805492935083929091906108ec908490611431565b925050819055508060cf60008282546109059190611431565b909155505033600081815260d060209081526040918290205491519182528492849290917fb4caaf29adda3eefee3ad552a8e85058589bf834c7466cae4ee58787f70589ed910160405180910390a460c95461096c906001600160a01b0316333084610e57565b60ca5460c954610380916001600160a01b039182169133911685610e57565b60cc54158061099b575060cc5442105b156109b957604051635494407d60e11b815260040160405180910390fd5b33600090815260d0602052604081205490036109e8576040516306886fc560e01b815260040160405180910390fd5b60006109f333610397565b33600090815260d0602052604080822082905582015191925090610a19906064906113df565b9050600060648360600151610a2e91906113df565b90506000610a3c8284611431565b9050818460600151610a4e9190611401565b8451604086015133917f26e25bd0b3e0bcfe2e01a82a4210c219ec7b676c51ba959bfe0431b0b7b84fb191610a84908890611401565b60408051928352602083019190915281018690526060810187905260800160405180910390a3835160c954610ac6916001600160a01b03909116903390610cb4565b606084015115610af757610af733838660600151610ae49190611401565b60c9546001600160a01b03169190610cb4565b604084015115610b775760c95460408501516001600160a01b03909116906342966c6890610b26908690611401565b6040518263ffffffff1660e01b8152600401610b4491815260200190565b600060405180830381600087803b158015610b5e57600080fd5b505af1158015610b72573d6000803e3d6000fd5b505050505b8015610b9a5760ca5460c954610b9a916001600160a01b03918216911683610cb4565b50505050565b610ba8610d17565b811580610bb457504282105b15610bd2576040516305740b0360e31b815260040160405180910390fd5b80600003610bf35760405163047ec64f60e01b815260040160405180910390fd5b60cb82905560cd819055610c078183611431565b60cc81905560405183907f03ee0eecde5e0cb44da18bdf79801139f12bcd858038cff17c8835b7485f8dee90600090a35050565b610c43610d17565b6001600160a01b038116610ca85760405162461bcd60e51b815260206004820152602660248201527f4f776e61626c653a206e6577206f776e657220697320746865207a65726f206160448201526564647265737360d01b60648201526084016105ed565b610cb181610e8f565b50565b6040516001600160a01b03831660248201526044810182905261038090849063a9059cbb60e01b906064015b60408051601f198184030181529190526020810180516001600160e01b03166001600160e01b031990931692909217909152610ee1565b6033546001600160a01b031633146103955760405162461bcd60e51b815260206004820181905260248201527f4f776e61626c653a2063616c6c6572206973206e6f7420746865206f776e657260448201526064016105ed565b610d79610fb3565b6065805460ff191690557f5db9ee0a495bf2e6ff9c91a7834c1ba4fdd244a5e8aa4e537bd38aeae4b073aa335b6040516001600160a01b03909116815260200160405180910390a1565b600054610100900460ff166103955760405162461bcd60e51b81526004016105ed90611444565b600054610100900460ff16610e115760405162461bcd60e51b81526004016105ed90611444565b610cb181610ffc565b610e2261105a565b6065805460ff191660011790557f62e78cea01bee320cd4e420270b5ea74000d11b0c9f74754ebdbfc544b05a258610da63390565b6040516001600160a01b0380851660248301528316604482015260648101829052610b9a9085906323b872dd60e01b90608401610ce0565b603380546001600160a01b038381166001600160a01b0319831681179093556040519116919082907f8be0079c531659141344cd1fd0a4f28419497f9722a3daafe3b4186f6b6457e090600090a35050565b6000610f36826040518060400160405280602081526020017f5361666545524332303a206c6f772d6c6576656c2063616c6c206661696c6564815250856001600160a01b03166110a09092919063ffffffff16565b8051909150156103805780806020019051810190610f54919061148f565b6103805760405162461bcd60e51b815260206004820152602a60248201527f5361666545524332303a204552433230206f7065726174696f6e20646964206e6044820152691bdd081cdd58d8d9595960b21b60648201526084016105ed565b60655460ff166103955760405162461bcd60e51b815260206004820152601460248201527314185d5cd8589b194e881b9bdd081c185d5cd95960621b60448201526064016105ed565b600054610100900460ff166110235760405162461bcd60e51b81526004016105ed90611444565b6001600160a01b03811661104a57604051635bb92f3d60e01b815260040160405180910390fd5b6110526110b7565b610ca86110e6565b60655460ff16156103955760405162461bcd60e51b815260206004820152601060248201526f14185d5cd8589b194e881c185d5cd95960821b60448201526064016105ed565b60606110af8484600085611115565b949350505050565b600054610100900460ff166110de5760405162461bcd60e51b81526004016105ed90611444565b6103956111f0565b600054610100900460ff1661110d5760405162461bcd60e51b81526004016105ed90611444565b610395611220565b6060824710156111765760405162461bcd60e51b815260206004820152602660248201527f416464726573733a20696e73756666696369656e742062616c616e636520666f6044820152651c8818d85b1b60d21b60648201526084016105ed565b600080866001600160a01b0316858760405161119291906114d5565b60006040518083038185875af1925050503d80600081146111cf576040519150601f19603f3d011682016040523d82523d6000602084013e6111d4565b606091505b50915091506111e587838387611253565b979650505050505050565b600054610100900460ff166112175760405162461bcd60e51b81526004016105ed90611444565b61039533610e8f565b600054610100900460ff166112475760405162461bcd60e51b81526004016105ed90611444565b6065805460ff19169055565b606083156112c25782516000036112bb576001600160a01b0385163b6112bb5760405162461bcd60e51b815260206004820152601d60248201527f416464726573733a2063616c6c20746f206e6f6e2d636f6e747261637400000060448201526064016105ed565b50816110af565b6110af83838151156112d75781518083602001fd5b8060405162461bcd60e51b81526004016105ed91906114f1565b80356001600160a01b038116811461130857600080fd5b919050565b60006020828403121561131f57600080fd5b611328826112f1565b9392505050565b60008060008060008060c0878903121561134857600080fd5b611351876112f1565b955061135f602088016112f1565b945061136d604088016112f1565b9350606087013592506080870135915060a087013590509295509295509295565b6000602082840312156113a057600080fd5b5035919050565b600080604083850312156113ba57600080fd5b50508035926020909101359150565b634e487b7160e01b600052601160045260246000fd5b6000826113fc57634e487b7160e01b600052601260045260246000fd5b500490565b81810381811115611414576114146113c9565b92915050565b8082028115828204841417611414576114146113c9565b80820180821115611414576114146113c9565b6020808252602b908201527f496e697469616c697a61626c653a20636f6e7472616374206973206e6f74206960408201526a6e697469616c697a696e6760a81b606082015260800190565b6000602082840312156114a157600080fd5b8151801515811461132857600080fd5b60005b838110156114cc5781810151838201526020016114b4565b50506000910152565b600082516114e78184602087016114b1565b9190910192915050565b60208152600082518060208401526115108160408501602087016114b1565b601f01601f1916919091016040019291505056fea26469706673582212208c3923c49162dc893992f6f4b1b4266f42442f526da29ffefb9562c61f14777d64736f6c63430008120033",
  "linkReferences": {},
  "deployedLinkReferences": {}
}