{
  "_format": "hh-sol-artifact-1",
  "contractName": "XenoStaking",
  "sourceName": "contracts/XenoStaking.sol",
  "abi": [
    {
      "inputs": [
        {
          "internalType": "address",
          "name": "owner",
          "type": "address"
        }
      ],
      "name": "stakedByOwner",
      "outputs": [
        {
          "internalType": "uint16[]",
          "name": "",
          "type": "uint16[]"
        }
      ],
      "stateMutability": "view",
      "type": "function"
    }
  ],
  "bytecode": "0x60806040523480156200001157600080fd5b506200001c6200002c565b620000266200002c565b620000ee565b600054610100900460ff1615620000995760405162461bcd60e51b815260206004820152602760248201527f496e697469616c697a61626c653a20636f6e747261637420697320696e697469604482015266616c697a696e6760c81b606482015260840160405180910390fd5b60005460ff9081161015620000ec576000805460ff191660ff9081179091556040519081527f7f26b83ff96e1f2b6a682f133852f6798a09c465da95921460cefb38474024989060200160405180910390a15b565b61392f80620000fe6000396000f3fe608060405234801561001057600080fd5b506004361061025d5760003560e01c80637d60ff1111610146578063c5a991f8116100c3578063d5a44f8611610087578063d5a44f861461057c578063d5cb6d2c146105c0578063e2538a1e146105d3578063ed9d21b9146105e6578063fbc26131146105f9578063fe939afc1461061957600080fd5b8063c5a991f814610505578063c6ab5e2714610518578063c7a0f8cc1461052b578063cde930c81461053e578063d547741f1461056957600080fd5b806391d148541161010a57806391d14854146104a4578063a217fddf146104b7578063a694fc3a146104bf578063ac18de43146104d2578063bfa0caa7146104e557600080fd5b80637d60ff11146104595780638456cb591461046e57806384e1aa37146104765780638b0700ee146104895780638d3216d01461049c57600080fd5b806336568abe116101df578063501039dd116101a3578063501039dd146103c25780635845b2a2146103d55780635c975abb146103f5578063666ffa9714610400578063686899a7146104135780636c2b9b2e1461043357600080fd5b806336568abe1461036e5780633ebcd83c146103815780633f4ba83a14610394578063485cc9551461039c5780634c83ff77146103af57600080fd5b80631fe927cf116102265780631fe927cf146102f1578063248a9ca3146103125780632d06177a146103355780632e17de78146103485780632f2ff15d1461035b57600080fd5b8062247b5d1461026257806301ffc9a71461028a5780630d50c1891461029d578063150b7a02146102b25780631c68c123146102de575b600080fd5b61027561027036600461314e565b61062c565b60405190151581526020015b60405180910390f35b610275610298366004613167565b610658565b6102b06102ab3660046131dd565b610683565b005b6102c56102c0366004613236565b6106c6565b6040516001600160e01b03199091168152602001610281565b6102b06102ec3660046132d1565b61074e565b6103046102ff36600461314e565b6107f7565b604051908152602001610281565b61030461032036600461314e565b60009081526097602052604090206001015490565b6102b061034336600461333d565b61088e565b6102b061035636600461314e565b610915565b6102b0610369366004613358565b610c7a565b6102b061037c366004613358565b610c9f565b61030461038f36600461314e565b610d19565b6102b0610d4a565b6102b06103aa366004613384565b610d6d565b6102b06103bd3660046132d1565b611083565b6102b06103d03660046133ae565b611125565b6103e86103e336600461333d565b611362565b60405161028191906133d0565b60335460ff16610275565b6102b061040e366004613358565b6113f7565b61042661042136600461314e565b611419565b604051610281919061344e565b61044661044136600461345c565b611487565b60405161ffff9091168152602001610281565b6104616114cf565b6040516102819190613486565b6102b0611558565b6102b06104843660046134c5565b611578565b6102b061049736600461333d565b6117c4565b6102b0611915565b6102756104b2366004613358565b611a0c565b610304600081565b6102b06104cd36600461314e565b611a37565b6102b06104e036600461333d565b611c18565b6104f86104f336600461314e565b611ced565b60405161028191906134f1565b61027561051336600461314e565b611d89565b61030461052636600461333d565b611e82565b6102b0610539366004613358565b611f57565b61055161054c3660046133ae565b611f79565b6040516001600160a01b039091168152602001610281565b6102b0610577366004613358565b611fb1565b61058f61058a36600461314e565b611fd6565b6040805195865260208601949094529284019190915260608301526001600160a01b0316608082015260a001610281565b6102b06105ce3660046133ae565b612015565b6102b06105e1366004613358565b6122e6565b6102b06105f43660046133ae565b612308565b61060c61060736600461333d565b612499565b6040516102819190613532565b6102b06106273660046131dd565b6125dd565b614f4681610fb2811061063e57600080fd5b60209182820401919006915054906101000a900460ff1681565b60006001600160e01b0319821663cdeccef160e01b148061067d575061067d8261261b565b92915050565b60005b818110156106c1576106af8383838181106106a3576106a3613574565b90506020020135610915565b806106b9816135a0565b915050610686565b505050565b6000846001600160a01b0316866001600160a01b0316036106f0576106eb8486612650565b61073c565b6001600160a01b038616301461073c576040518060600160405280603781526020016138c4603791396040516313f76f8360e21b81526004016107339190613609565b60405180910390fd5b50630a85bd0160e11b95945050505050565b828114610799576040805180820182526015815274082e4e4c2f240d8cadccee8d040dad2e6dac2e8c6d605b1b6020820152905163dcfb398d60e01b81526107339190600401613609565b60005b838110156107f0576107de8585838181106107b9576107b9613574565b905060200201358484848181106107d2576107d2613574565b90506020020135611125565b806107e8816135a0565b91505061079c565b5050505050565b60008060cc83610fb2811061080e5761080e613574565b60050201600401546001600160a01b03160361082c57506000919050565b600060cc83610fb2811061084257610842613574565b600502016003015442610855919061361c565b905061086083611d89565b1561087d5761087666041ca7e961012f8261362f565b9392505050565b610876660c55f7bc23038f8261362f565b60008051602061387e8339815191526108a681612828565b6001600160a01b0382166108f9576040805180820182526016815275496e76616c69642077616c6c6574206164647265737360501b6020820152905163d647364f60e01b81526107339190600401613609565b61091160008051602061387e83398151915283612832565b5050565b80600060cc82610fb2811061092c5761092c613574565b60050201600401546001600160a01b03160361098357604080518082018252601081526f151bdad95b881b9bdd081cdd185ad95960821b60208201529051634418dd4d60e01b81526107339190839060040161364e565b813360cc82610fb2811061099957610999613574565b60050201600401546001600160a01b0316146109eb57604080518082018252601881526000805160206137e383398151915260208201529051634418dd4d60e01b81526107339190839060040161364e565b610a108360cc85610fb28110610a0357610a03613574565b6005020160020154611125565b610a1d836105f485610d19565b60cc83610fb28110610a3157610a31613574565b60006005919091029190910181815560018101829055600281018290556003810182905560040180546001600160a01b0319169055604051849133917f0f5bb82176feb1b5e747e28471aa92156a04d9f3ab9f45f28e2d704232b93f759190a3336000908152614fc460205260408120905b8154811015610bbe5784828281548110610abf57610abf613574565b60009182526020909120601082040154600f9091166002026101000a900461ffff1603610bac5781548290610af69060019061361c565b81548110610b0657610b06613574565b90600052602060002090601091828204019190066002029054906101000a900461ffff16828281548110610b3c57610b3c613574565b90600052602060002090601091828204019190066002026101000a81548161ffff021916908361ffff16021790555081805480610b7b57610b7b613670565b600082815260209020601060001990920191820401805461ffff6002600f8516026101000a02191690559055610bbe565b80610bb6816135a0565b915050610aa3565b5060ca54604051632142170760e11b8152306004820152336024820152604481018690526001600160a01b03909116906342842e0e90606401600060405180830381600087803b158015610c1157600080fd5b505af1158015610c25573d6000803e3d6000fd5b50505050610c747fbaefe46e383b7d20356b5addf47492a297f984e66f2248afacb519924bc6667485604051602001610c6091815260200190565b6040516020818303038152906040526128b8565b50505050565b600082815260976020526040902060010154610c9581612828565b6106c18383612832565b6001600160a01b0381163314610d0f5760405162461bcd60e51b815260206004820152602f60248201527f416363657373436f6e74726f6c3a2063616e206f6e6c792072656e6f756e636560448201526e103937b632b9903337b91039b2b63360891b6064820152608401610733565b61091182826129a1565b600060cc82610fb28110610d2f57610d2f613574565b6005020160010154610d40836107f7565b61067d919061361c565b60008051602061387e833981519152610d6281612828565b610d6a612a08565b50565b600054610100900460ff1615808015610d8d5750600054600160ff909116105b80610da75750303b158015610da7575060005460ff166001145b610e0a5760405162461bcd60e51b815260206004820152602e60248201527f496e697469616c697a61626c653a20636f6e747261637420697320616c72656160448201526d191e481a5b9a5d1a585b1a5e995960921b6064820152608401610733565b6000805460ff191660011790558015610e2d576000805461ff0019166101001790555b6001600160a01b038316610e80576040805180820182526016815275496e76616c69642077616c6c6574206164647265737360501b6020820152905163d647364f60e01b81526107339190600401613609565b6001600160a01b038216610ed3576040805180820182526016815275496e76616c69642077616c6c6574206164647265737360501b6020820152905163d647364f60e01b81526107339190600401613609565b610edb612a5a565b60ca80546001600160a01b038581166001600160a01b0319928316811790935560cb8054918616919092161790556040516301ffc9a760e01b8152635c1166a960e01b60048201526301ffc9a790602401602060405180830381865afa158015610f49573d6000803e3d6000fd5b505050506040513d601f19601f82011682018060405250810190610f6d9190613686565b158015610fea575060ca546040516301ffc9a760e01b81526380ac58cd60e01b60048201526001600160a01b03909116906301ffc9a790602401602060405180830381865afa158015610fc4573d6000803e3d6000fd5b505050506040513d601f19601f82011682018060405250810190610fe89190613686565b155b1561103157604080518082018252601381527215dc9bdb99c816195b9bc818dbdb9d1c9858dd606a1b6020820152905163dcfb398d60e01b81526107339190600401613609565b611039612aab565b80156106c1576000805461ff0019169055604051600181527f7f26b83ff96e1f2b6a682f133852f6798a09c465da95921460cefb38474024989060200160405180910390a1505050565b8281146110ce576040805180820182526015815274082e4e4c2f240d8cadccee8d040dad2e6dac2e8c6d605b1b6020820152905163dcfb398d60e01b81526107339190600401613609565b60005b838110156107f0576111138585838181106110ee576110ee613574565b9050602002013584848481811061110757611107613574565b90506020020135612015565b8061111d816135a0565b9150506110d1565b81600060cc82610fb2811061113c5761113c613574565b60050201600401546001600160a01b03160361119357604080518082018252601081526f151bdad95b881b9bdd081cdd185ad95960821b60208201529051634418dd4d60e01b81526107339190839060040161364e565b823360cc82610fb281106111a9576111a9613574565b60050201600401546001600160a01b0316146111fb57604080518082018252601881526000805160206137e383398151915260208201529051634418dd4d60e01b81526107339190839060040161364e565b60cc84610fb2811061120f5761120f613574565b600502016002015460000315610c74578260cc85610fb2811061123457611234613574565b600502016002015410156112755760405180606001604052806021815260200161383760219139604051636ec80ae360e11b81526004016107339190613609565b8260cc85610fb2811061128a5761128a613574565b6005020160020160008282546112a0919061361c565b909155506112b090503384612ae8565b6040518490849033907f0706dd451cad6f4062238a3e76def503042635989a3f69a35a146c556562b2e890600090a4610c747f7c07819a981d4ab2b053b32ef94267474f833847a2dd15bdc3bfb73b81240dc160cc86610fb2811061131757611317613574565b60050201604051602001610c609190815481526001820154602082015260028201546040820152600382015460608201526004909101546001600160a01b0316608082015260a00190565b6001600160a01b0381166000908152614fc460209081526040918290208054835181840281018401909452808452606093928301828280156113eb57602002820191906000526020600020906000905b82829054906101000a900461ffff1661ffff16815260200190600201906020826001010492830192600103820291508084116113b25790505b50505050509050919050565b60008051602061387e83398151915261140f81612828565b6106c18284612ae8565b6114216130e6565b60cc82610fb2811061143557611435613574565b6040805160a081018252600592909202929092018054825260018101546020830152600281015492820192909252600382015460608201526004909101546001600160a01b0316608082015292915050565b614fc460205281600052604060002081815481106114a457600080fd5b9060005260206000209060109182820401919006600202915091509054906101000a900461ffff1681565b6114d761311e565b604080516201f640810190915260cc610fb26000835b8282101561154f576040805160a08101825260058402860180548252600180820154602080850191909152600283015494840194909452600382015460608401526004909101546001600160a01b0316608083015290835290920191016114ed565b50505050905090565b60008051602061387e83398151915261157081612828565b610d6a612aab565b823360cc82610fb2811061158e5761158e613574565b60050201600401546001600160a01b0316146115e057604080518082018252601881526000805160206137e383398151915260208201529051634418dd4d60e01b81526107339190839060040161364e565b81600060cc82610fb281106115f7576115f7613574565b60050201600401546001600160a01b03160361164e57604080518082018252601081526f151bdad95b881b9bdd081cdd185ad95960821b60208201529051634418dd4d60e01b81526107339190839060040161364e565b3360cc86610fb2811061166357611663613574565b60050201600401546001600160a01b0316146116b357604080518082018252601881526000805160206137e38339815191526020820152905163102ac41160e21b81526107339190600401613609565b836116bd86610d19565b10156116f65760405180606001604052806026815260200161389e6026913960405163102ac41160e21b81526004016107339190613609565b8360cc86610fb2811061170b5761170b613574565b60050201600101600082825461172191906136a8565b9091555084905060cc84610fb2811061173c5761173c613574565b60050201600201600082825461175291906136a8565b9091555050604051848152859033907fb97a4726a5dce86ed9354adb86296fc3ebe80116c9fdca4e6b319275df6acedb9060200160405180910390a36040518390859033907f61cfcb7b7470231369ad184658d886ca30c32e2a001aa033eead3765f4189a7c90600090a45050505050565b60008051602061387e8339815191526117dc81612828565b6001600160a01b03821661182f576040805180820182526016815275496e76616c69642077616c6c6574206164647265737360501b6020820152905163d647364f60e01b81526107339190600401613609565b60cb546001600160a01b03908116908316810361189b5760405163dcfb398d60e01b815260206004820152602360248201527f4d7573742075706461746520746f206120646966666572656e7420636f6e74726044820152621858dd60ea1b6064820152608401610733565b60cb80546001600160a01b0319166001600160a01b03851617905560405163414d4d4f60e01b8152600401604080519182900382206001600160a01b03808516845286166020840152917f0441abf574021357ac657a1ea4fbfa96c4c3f39a68bc29c9d793d337c0e86fad910160405180910390a2505050565b336000908152614fc4602090815260408083208054825181850281018501909352808352919290919083018282801561199557602002820191906000526020600020906000905b82829054906101000a900461ffff1661ffff168152602001906002019060208260010104928301926001038202915080841161195c5790505b5050505050905060005b81518110156109115760006119d08383815181106119bf576119bf613574565b602002602001015161ffff16610d19565b90506119f98383815181106119e7576119e7613574565b602002602001015161ffff1682612308565b5080611a04816135a0565b91505061199f565b60009182526097602090815260408084206001600160a01b0393909316845291905290205460ff1690565b600060cc82610fb28110611a4d57611a4d613574565b60050201600401546001600160a01b031614611aa557604080518082018252601381527216195b9bc8185b1c9958591e481cdd185ad959606a1b602082015290516313f76f8360e21b81526107339190600401613609565b60ca5460405163e985e9c560e01b81523360048201523060248201526001600160a01b039091169063e985e9c590604401602060405180830381865afa158015611af3573d6000803e3d6000fd5b505050506040513d601f19601f82011682018060405250810190611b179190613686565b611b4e57604051806060016040528060268152602001613858602691396040516313f76f8360e21b81526004016107339190613609565b611b588133612650565b60ca54604051635c46a7ef60e11b8152336004820152306024820152604481018390526080606482015260076084820152667374616b696e6760c81b60a48201526001600160a01b039091169063b88d4fde9060c401600060405180830381600087803b158015611bc857600080fd5b505af1158015611bdc573d6000803e3d6000fd5b50505050610d6a7f2a226045a2ebec88a38c5542fa9a6cb93e7c957bef10f2281154b3513e7f8fa260cc83610fb2811061131757611317613574565b60008051602061387e833981519152611c3081612828565b6001600160a01b038216611c83576040805180820182526016815275496e76616c69642077616c6c6574206164647265737360501b6020820152905163d647364f60e01b81526107339190600401613609565b336001600160a01b03831603611cd557604080518082018252601381527221b0b713ba103932b6b7bb329039b2b73232b960691b60208201529051632dd96c8360e21b81526107339190600401613609565b61091160008051602061387e833981519152836129a1565b606060c9600083604051602001611d0691815260200190565b6040516020818303038152906040528051906020012081526020019081526020016000208054806020026020016040519081016040528092919081815260200182805480156113eb57602002820191906000526020600020905b81546001600160a01b03168152600190910190602001808311611d605750505050509050919050565b60408051610240810182526101e281526102ae6020820152610377918101919091526103f3606082015261047660808201526105eb60a082015261062d60c08201526106b460e08201526107996101008201526107dc610120820152610833610140820152610878610160820152610a7b610180820152610b086101a0820152610bbc6101c0820152610d286101e0820152610ec7610200820152610fa7610220820152600090815b6012811015611e785783828260128110611e4e57611e4e613574565b602002015161ffff1603611e66575060019392505050565b80611e70816135a0565b915050611e32565b5060009392505050565b6001600160a01b0381166000908152614fc46020908152604080832080548251818502810185019093528083528493830182828015611f0857602002820191906000526020600020906000905b82829054906101000a900461ffff1661ffff1681526020019060020190602082600101049283019260010382029150808411611ecf5790505b505050505090506000805b8251811015611f4f57611f318382815181106119bf576119bf613574565b611f3b90836136a8565b915080611f47816135a0565b915050611f13565b509392505050565b60008051602061387e833981519152611f6f81612828565b6106c18383612b5f565b60c96020528160005260406000208181548110611f9557600080fd5b6000918252602090912001546001600160a01b03169150829050565b600082815260976020526040902060010154611fcc81612828565b6106c183836129a1565b60cc81610fb28110611fe757600080fd5b600502018054600182015460028301546003840154600490940154929450909290916001600160a01b031685565b81600060cc82610fb2811061202c5761202c613574565b60050201600401546001600160a01b03160361208357604080518082018252601081526f151bdad95b881b9bdd081cdd185ad95960821b60208201529051634418dd4d60e01b81526107339190839060040161364e565b60cb54604051636eb1769f60e11b815233600482015230602482015283916001600160a01b03169063dd62ed3e90604401602060405180830381865afa1580156120d1573d6000803e3d6000fd5b505050506040513d601f19601f820116820180604052508101906120f591906136bb565b101561212e576040518060600160405280603481526020016138036034913960405163c96d5c3f60e01b81526004016107339190613609565b60cb546040516370a0823160e01b815233600482015283916001600160a01b0316906370a0823190602401602060405180830381865afa158015612176573d6000803e3d6000fd5b505050506040513d601f19601f8201168201806040525081019061219a91906136bb565b10156121d3576040518060600160405280602881526020016138fb6028913960405163c96d5c3f60e01b81526004016107339190613609565b8160cc84610fb281106121e8576121e8613574565b6005020160020160008282546121fe91906136a8565b90915550506040518390839033907f61cfcb7b7470231369ad184658d886ca30c32e2a001aa033eead3765f4189a7c90600090a460cb546040516323b872dd60e01b8152336004820152306024820152604481018490526001600160a01b03909116906323b872dd906064016020604051808303816000875af1158015612289573d6000803e3d6000fd5b505050506040513d601f19601f820116820180604052508101906122ad9190613686565b506106c17ff6c13b0f3205aec75b0830949869efb3a388d3bf50217d69d0347a34d5b10deb60cc85610fb2811061131757611317613574565b60008051602061387e8339815191526122fe81612828565b6106c18383612ce1565b81600060cc82610fb2811061231f5761231f613574565b60050201600401546001600160a01b03160361237657604080518082018252601081526f151bdad95b881b9bdd081cdd185ad95960821b60208201529051634418dd4d60e01b81526107339190839060040161364e565b823360cc82610fb2811061238c5761238c613574565b60050201600401546001600160a01b0316146123de57604080518082018252601881526000805160206137e383398151915260208201529051634418dd4d60e01b81526107339190839060040161364e565b826123e885610d19565b10156124215760405180606001604052806026815260200161389e6026913960405163102ac41160e21b81526004016107339190613609565b8260cc85610fb2811061243657612436613574565b60050201600101600082825461244c91906136a8565b9091555061245c90503384612ae8565b604051838152849033907fb97a4726a5dce86ed9354adb86296fc3ebe80116c9fdca4e6b319275df6acedb9060200160405180910390a350505050565b6001600160a01b0381166000908152614fc46020526040812080546060929067ffffffffffffffff8111156124d0576124d06136d4565b60405190808252806020026020018201604052801561250957816020015b6124f66130e6565b8152602001906001900390816124ee5790505b50905060005b8254811015611f4f5760cc83828154811061252c5761252c613574565b60009182526020909120601082040154600f9091166002026101000a900461ffff16610fb2811061255f5761255f613574565b6040805160a081018252600592909202929092018054825260018101546020830152600281015492820192909252600382015460608201526004909101546001600160a01b0316608082015282518390839081106125bf576125bf613574565b602002602001018190525080806125d5906135a0565b91505061250f565b60005b818110156106c1576126098383838181106125fd576125fd613574565b90506020020135611a37565b80612613816135a0565b9150506125e0565b60006001600160e01b03198216637965db0b60e01b148061067d57506301ffc9a760e01b6001600160e01b031983161461067d565b6000614f4683610fb2811061266757612667613574565b602081049091015460ff601f9092166101000a9004161515600003612716576001614f4684610fb2811061269d5761269d613574565b602091828204019190066101000a81548160ff0219169083151502179055506126c583612d79565b6126cf90826136a8565b905082826001600160a01b03167f5610b1d5440b6e908a1aca9eb47f59bc4f1391d5447ca85ae4c9547d36e2ec818360405161270d91815260200190565b60405180910390a35b6040518060a0016040528084815260200160008152602001828152602001428152602001836001600160a01b031681525060cc84610fb2811061275b5761275b613574565b82516005919091029190910190815560208083015160018084019190915560408085015160028086019190915560608601516003860155608090950151600490940180546001600160a01b0319166001600160a01b039586161790559286166000818152614fc4845284812080549384018155815292832060108304018054600f9093169095026101000a61ffff81810219909316928916029190911790935590518592917f9e71bc8eea02a63969f509818f2dafb9254532904319f9dbda79b67bd34a5f3d91a3505050565b610d6a8133612dc7565b61283c8282611a0c565b6109115760008281526097602090815260408083206001600160a01b03851684529091529020805460ff191660011790556128743390565b6001600160a01b0316816001600160a01b0316837f2f8788117e7eff1d82e926ec794901d17c78024a50270940304540a733656f0d60405160405180910390a45050565b600060c96000846040516020016128d191815260200190565b604051602081830303815290604052805190602001208152602001908152602001600020905060008180549050905060005b818110156107f057600083828154811061291f5761291f613574565b60009182526020909120015460405163705f68a360e11b81526001600160a01b039091169150819063e0bed1469061295d90899089906004016136ea565b600060405180830381600087803b15801561297757600080fd5b505af115801561298b573d6000803e3d6000fd5b50505050508061299a906135a0565b9050612903565b6129ab8282611a0c565b156109115760008281526097602090815260408083206001600160a01b0385168085529252808320805460ff1916905551339285917ff6391f5c32d9c69d2a47ea670b442974b53935d1edc7fd64eb21e047a839171b9190a45050565b612a10612e20565b6033805460ff191690557f5db9ee0a495bf2e6ff9c91a7834c1ba4fdd244a5e8aa4e537bd38aeae4b073aa335b6040516001600160a01b03909116815260200160405180910390a1565b600054610100900460ff16612a815760405162461bcd60e51b81526004016107339061370b565b612a89612e69565b612a91612e98565b612aa960008051602061387e83398151915233612832565b565b612ab3612ebf565b6033805460ff191660011790557f62e78cea01bee320cd4e420270b5ea74000d11b0c9f74754ebdbfc544b05a258612a3d3390565b60cb5460405163a9059cbb60e01b81526001600160a01b038481166004830152602482018490529091169063a9059cbb906044016020604051808303816000875af1158015612b3b573d6000803e3d6000fd5b505050506040513d601f19601f820116820180604052508101906106c19190613686565b600060c9600084604051602001612b7891815260200190565b604051602081830303815290604052805190602001208152602001908152602001600020905060005b8154811015612ca557826001600160a01b0316828281548110612bc657612bc6613574565b6000918252602090912001546001600160a01b031603612c955781548290612bf09060019061361c565b81548110612c0057612c00613574565b9060005260206000200160009054906101000a90046001600160a01b0316828281548110612c3057612c30613574565b9060005260206000200160006101000a8154816001600160a01b0302191690836001600160a01b0316021790555081805480612c6e57612c6e613670565b600082815260209020810160001990810180546001600160a01b0319169055019055612ca5565b612c9e816135a0565b9050612ba1565b506040516001600160a01b0383169084907f7bcf437949ec3ade95e0ebb576e9d6c1dae34dd7a15fc6797ef296cd2cee160390600090a3505050565b60c9600083604051602001612cf891815260200190565b60408051808303601f1901815291815281516020928301208352828201939093529082016000908120805460018101825590825291812090910180546001600160a01b0319166001600160a01b038516908117909155915184917fef0efa3f345a214dc4f8e3cbc90be4739cbbd7ad109e38b1aa18858015ba2f7e91a35050565b6000610414821015612d96575069065a4da25d3016c00000919050565b6107d0821015612db1575069043c33c1937564800000919050565b5069021e19e0c9bab2400000919050565b919050565b612dd18282611a0c565b61091157612dde81612f05565b612de9836020612f17565b604051602001612dfa929190613756565b60408051601f198184030181529082905262461bcd60e51b825261073391600401613609565b60335460ff16612aa95760405162461bcd60e51b815260206004820152601460248201527314185d5cd8589b194e881b9bdd081c185d5cd95960621b6044820152606401610733565b600054610100900460ff16612e905760405162461bcd60e51b81526004016107339061370b565b612aa96130b3565b600054610100900460ff16612aa95760405162461bcd60e51b81526004016107339061370b565b60335460ff1615612aa95760405162461bcd60e51b815260206004820152601060248201526f14185d5cd8589b194e881c185d5cd95960821b6044820152606401610733565b606061067d6001600160a01b03831660145b60606000612f2683600261362f565b612f319060026136a8565b67ffffffffffffffff811115612f4957612f496136d4565b6040519080825280601f01601f191660200182016040528015612f73576020820181803683370190505b509050600360fc1b81600081518110612f8e57612f8e613574565b60200101906001600160f81b031916908160001a905350600f60fb1b81600181518110612fbd57612fbd613574565b60200101906001600160f81b031916908160001a9053506000612fe184600261362f565b612fec9060016136a8565b90505b6001811115613064576f181899199a1a9b1b9c1cb0b131b232b360811b85600f166010811061302057613020613574565b1a60f81b82828151811061303657613036613574565b60200101906001600160f81b031916908160001a90535060049490941c9361305d816137cb565b9050612fef565b5083156108765760405162461bcd60e51b815260206004820181905260248201527f537472696e67733a20686578206c656e67746820696e73756666696369656e746044820152606401610733565b600054610100900460ff166130da5760405162461bcd60e51b81526004016107339061370b565b6033805460ff19169055565b6040518060a001604052806000815260200160008152602001600081526020016000815260200160006001600160a01b031681525090565b604051806201f6400160405280610fb2905b6131386130e6565b8152602001906001900390816131305790505090565b60006020828403121561316057600080fd5b5035919050565b60006020828403121561317957600080fd5b81356001600160e01b03198116811461087657600080fd5b60008083601f8401126131a357600080fd5b50813567ffffffffffffffff8111156131bb57600080fd5b6020830191508360208260051b85010111156131d657600080fd5b9250929050565b600080602083850312156131f057600080fd5b823567ffffffffffffffff81111561320757600080fd5b61321385828601613191565b90969095509350505050565b80356001600160a01b0381168114612dc257600080fd5b60008060008060006080868803121561324e57600080fd5b6132578661321f565b94506132656020870161321f565b935060408601359250606086013567ffffffffffffffff8082111561328957600080fd5b818801915088601f83011261329d57600080fd5b8135818111156132ac57600080fd5b8960208285010111156132be57600080fd5b9699959850939650602001949392505050565b600080600080604085870312156132e757600080fd5b843567ffffffffffffffff808211156132ff57600080fd5b61330b88838901613191565b9096509450602087013591508082111561332457600080fd5b5061333187828801613191565b95989497509550505050565b60006020828403121561334f57600080fd5b6108768261321f565b6000806040838503121561336b57600080fd5b8235915061337b6020840161321f565b90509250929050565b6000806040838503121561339757600080fd5b6133a08361321f565b915061337b6020840161321f565b600080604083850312156133c157600080fd5b50508035926020909101359150565b6020808252825182820181905260009190848201906040850190845b8181101561340c57835161ffff16835292840192918401916001016133ec565b50909695505050505050565b805182526020808201519083015260408082015190830152606080820151908301526080908101516001600160a01b0316910152565b60a0810161067d8284613418565b6000806040838503121561346f57600080fd5b6134788361321f565b946020939093013593505050565b6209cf408101818360005b610fb28110156134bc576134a6838351613418565b60a0929092019160209190910190600101613491565b50505092915050565b6000806000606084860312156134da57600080fd5b505081359360208301359350604090920135919050565b6020808252825182820181905260009190848201906040850190845b8181101561340c5783516001600160a01b03168352928401929184019160010161350d565b6020808252825182820181905260009190848201906040850190845b8181101561340c57613561838551613418565b9284019260a0929092019160010161354e565b634e487b7160e01b600052603260045260246000fd5b634e487b7160e01b600052601160045260246000fd5b6000600182016135b2576135b261358a565b5060010190565b60005b838110156135d45781810151838201526020016135bc565b50506000910152565b600081518084526135f58160208601602086016135b9565b601f01601f19169290920160200192915050565b60208152600061087660208301846135dd565b8181038181111561067d5761067d61358a565b60008160001904831182151516156136495761364961358a565b500290565b60408152600061366160408301856135dd565b90508260208301529392505050565b634e487b7160e01b600052603160045260246000fd5b60006020828403121561369857600080fd5b8151801515811461087657600080fd5b8082018082111561067d5761067d61358a565b6000602082840312156136cd57600080fd5b5051919050565b634e487b7160e01b600052604160045260246000fd5b82815260406020820152600061370360408301846135dd565b949350505050565b6020808252602b908201527f496e697469616c697a61626c653a20636f6e7472616374206973206e6f74206960408201526a6e697469616c697a696e6760a81b606082015260800190565b7f416363657373436f6e74726f6c3a206163636f756e742000000000000000000081526000835161378e8160178501602088016135b9565b7001034b99036b4b9b9b4b733903937b6329607d1b60179184019182015283516137bf8160288401602088016135b9565b01602801949350505050565b6000816137da576137da61358a565b50600019019056fe53656e646572206973206e6f7420746865207374616b6572000000000000000058656e6f207374616b696e6720636f6e747261637420646f6573206e6f74206861766520656e6f75676820616c6c6f77616e6365414d4d4f20616d6f756e742065786365656473207374616b656420616d6f756e744e6f7420617070726f76656420666f7220616c6c20746f207472616e736665722058656e6f73241ecf16d79d0f8dbfb92cbc07fe17840425976cf0667f022fe9877caa831b08414d4d4f207769746864726177616c20616d6f756e74206578636565647320726577617264734f6e6c792058656e6f20636f6e74726163742063616e206469726563746c79207472616e736665722058656e6f7320746f207374616b6553656e64657220646f6573206e6f74206861766520656e6f75676820414d4d4f2062616c616e6365a164736f6c6343000810000a",
  "linkReferences": {},
  "deployedLinkReferences": {}
}